:100000000C94CB000C94F3000C94F3000C94F300CC
:100010000C94F3000C94F3000C94F3000C94D508AA
:100020000C94F3000C94F3000C94F3000C94F30084
:100030000C94F3000C94F3000C94F3000C94F30074
:100040000C9442030C94F3000C9436020C941002AE
:100050000C94F3000C94F3000C94F3000C94F30054
:100060000C94F3000C94F30000000000240027001F
:100070002A000000000023002600290000000008DC
:10008000000201000003040700000000000000005F
:100090005741524E494E473A20436F6D6D756E6918
:1000A000636174696F6E206661696C7572652C207E
:1000B000697320746865204D465243353232207092
:1000C000726F7065726C7920636F6E6E65637465B4
:1000D000643F00203D2028756E6B6E6F776E29009F
:1000E000203D20636F756E74657266656974206368
:1000F00068697000203D2076322E3000203D207649
:10010000312E3000203D2076302E3000203D20283A
:10011000636C6F6E6529004669726D776172652048
:1001200056657273696F6E3A203078005363616E62
:10013000205049434320746F20736565205549441E
:100140002C2053414B2C20747970652C20616E64F7
:10015000206461746120626C6F636B732E2E2E00BD
:10016000010204081020408001020408102001024E
:100170000408102000000000250028002B000404C3
:10018000040404040404020202020202030303033F
:1001900003030200E20D11241FBECFEFD8E0DEBF43
:1001A000CDBF22E0AEE8B1E001C01D92A43AB20793
:1001B000E1F711E0A0E0B1E0E6E8F1E202C005906D
:1001C0000D92AE38B107D9F710E0CBECD0E004C007
:1001D0002197FE010E94AE0ECA3CD107C9F70E94CA
:1001E00057090C94C1100C940000089580E090E031
:1001F0000895FC01538D448D252F30E0842F90E02D
:10020000821B930B541710F0CF9608950197089511
:10021000FC01918D828D981761F0828DDF01A80F0E
:10022000B11D5D968C91928D9F5F9F73928F90E030
:1002300008958FEF9FEF0895FC01918D828D98179F
:1002400031F0828DE80FF11D858D90E008958FEFDC
:100250009FEF0895FC01918D228D892F90E0805CA5
:100260009F4F821B91098F73992708958DEA91E022
:100270000E942A0121E0892B09F420E0822F0895B1
:10028000FC01848DDF01A80FB11DA35ABF4F2C9133
:10029000848D90E001968F739927848FA689B78902
:1002A0002C93A089B1898C91837080648C93938DF9
:1002B000848D981306C00288F389E02D80818F7D9C
:1002C00080830895EF92FF920F931F93CF93DF9354
:1002D000EC0181E0888F9B8D8C8D981305C0E88997
:1002E000F989808185FD26C0F62E0B8D10E00F5F09
:1002F0001F4F0F731127E02E8C8DE8120CC00FB624
:1003000007FCFACFE889F989808185FFF5CFCE0116
:100310000E944001F1CF8B8DFE01E80FF11DE35AE1
:10032000FF4FF0829FB7F8940B8FEA89FB89808199
:1003300080620AC09FB7F894EE89FF896083E889DC
:10034000F98980818370806480839FBF81E090E021
:10035000DF91CF911F910F91FF90EF900895CF9370
:10036000DF93EC01888D8823C9F0EA89FB898081BD
:1003700085FD05C0A889B9898C9186FD0FC00FB68F
:1003800007FCF5CF808185FFF2CFA889B9898C91D0
:1003900085FFEDCFCE010E944001E7CFDF91CF91E5
:1003A000089580E090E0892B29F00E9436018111A8
:1003B0000C94000008953FB7F8948091A2019091A9
:1003C000A301A091A401B091A50126B5A89B05C0E9
:1003D0002F3F19F00196A11DB11D3FBFBA2FA92FC4
:1003E000982F8827820F911DA11DB11DBC01CD0141
:1003F00042E0660F771F881F991F4A95D1F708952D
:10040000BC016E5F7F4FDC01ED91FC910190F081AA
:10041000E02D40E0099591E0811190E0892F089549
:100420001F920F920FB60F9211242F933F934F9369
:100430005F936F937F938F939F93AF93BF93EF934C
:10044000FF938DEA91E00E944001FF91EF91BF91EF
:10045000AF919F918F917F916F915F914F913F915C
:100460002F910F900FBE0F901F9018951F920F9213
:100470000FB60F9211242F938F939F93EF93FF93B7
:10048000E091BD01F091BE018081E091C301F09146
:10049000C40182FD12C090818091C6018F5F8F736D
:1004A0002091C701821751F0E091C601F0E0E355B9
:1004B000FE4F958F8093C60101C08081FF91EF911F
:1004C0009F918F912F910F900FBE0F901F901895B5
:1004D000833081F028F4813099F08230A1F00895C2
:1004E0008730A9F08830B9F08430D1F48091800051
:1004F0008F7D03C0809180008F7780938000089566
:1005000084B58F7702C084B58F7D84BD08958091B6
:10051000B0008F7703C08091B0008F7D8093B000D2
:1005200008951F93CF93DF93282F30E0F901E4580B
:10053000FF4F8491F901E05AFE4FD491F901E2583E
:10054000FE4FC491CC23C1F0162F81110E94680286
:10055000EC2FF0E0EE0FFF1FEC58FE4FA591B49189
:100560009FB7F894111104C08C91D095D82302C084
:10057000EC91DE2BDC939FBFDF91CF911F9108950B
:10058000CF93DF9390E0FC01E05AFE4F2491FC01F1
:10059000E258FE4F8491882361F190E0880F991F03
:1005A000FC01E859FF4FC591D491FC01EC58FE4F76
:1005B000A591B491611109C09FB7F89488812095E5
:1005C00082238883EC912E230BC0623061F49FB7A5
:1005D000F8948881322F309583238883EC912E2BD9
:1005E0002C939FBF06C08FB7F894E8812E2B2883E9
:1005F0008FBFDF91CF9108958F929F92AF92BF925C
:10060000CF92DF92EF92FF926B017C010E94DB019F
:100610004B015C01C114D104E104F104F1F00E942A
:10062000DB01DC01CB0188199909AA09BB09883EC5
:100630009340A105B10570F321E0C21AD108E10889
:10064000F10888EE880E83E0981EA11CB11CC1142D
:10065000D104E104F10419F7DDCFFF90EF90DF90B2
:10066000CF90BF90AF909F908F9008952FB7F89440
:1006700060919E0170919F018091A0019091A101D4
:100680002FBF08951F920F920FB60F9211242F9330
:100690003F938F939F93AF93BF9380919E019091CF
:1006A0009F01A091A001B091A10130919D0123E093
:1006B000230F2D3720F40196A11DB11D05C026E89A
:1006C000230F0296A11DB11D20939D0180939E01D1
:1006D00090939F01A093A001B093A1018091A201EA
:1006E0009091A301A091A401B091A5010196A11D33
:1006F000B11D8093A2019093A301A093A401B09394
:10070000A501BF91AF919F918F913F912F910F9034
:100710000FBE0F901F90189508958EBD00000DB468
:1007200007FEFDCF8EB508958CBD9DBD08951F9326
:10073000CF93DF93EC01162F83E590E00E949403A2
:1007400060E08E850E949102812F80680E948D0357
:1007500080E00E948D03182F61E08E850E94910237
:10076000812FDF91CF911F9108950F931F93CF9306
:10077000DF93EC01062F142F83E590E00E94940391
:1007800060E08E850E949102802F0E948D03812F50
:100790000E948D0361E08E85DF91CF911F910F91B3
:1007A0000C9491028F929F92AF92CF92EF92FF9210
:1007B0000F931F93CF93DF9300D000D01F92CDB73C
:1007C000DEB74C0182E08D8340E064E2C4010E9408
:1007D000B50340E066E2C4010E94B50346E268E466
:1007E000C4010E94B50386E28B838D81823040F183
:1007F0006CE1C4010E949703482F4F776CE1C4015C
:100800000E94B50387E08C83A12CC12CCE010496F5
:100810007C018E010B5F1F4F9E012F5F3F4F41E018
:10082000BE016D5F7F4FC4010E947C0781110BC028
:100830008D81823039F481E09C81911104C008C01F
:1008400084E001C081E091E0823019F090E001C0C5
:1008500091E0892F0F900F900F900F900F90DF91E4
:10086000CF911F910F91FF90EF90CF90AF909F90FD
:100870008F900895CF92DF92EF92FF920F931F9384
:10088000CF93DF93EC016B01142F790140E062E01C
:100890000E94B50344E06AE0CE010E94B50340E83F
:1008A00064E1CE010E94B503A601612FCE010E9432
:1008B0004A0743E062E0CE010E94B50308E813E175
:1008C0006AE0CE010E94970382FF13C040E062E01D
:1008D000CE010E94B50364E4CE010E949703F701A4
:1008E000808362E4CE010E949703F701818380E058
:1008F00004C00150110921F783E0DF91CF911F91CE
:100900000F91FF90EF90DF90CF9008952F923F923C
:100910004F925F926F927F928F929F92AF92BF920F
:10092000CF92DF92EF92FF920F931F93CF93DF93BB
:10093000CDB7DEB72C970FB6F894DEBF0FBECDBF94
:10094000413508F00BC1342E3B014C016CE10E9493
:100950009703482F4F776CE1C4010E94B50322240E
:10096000239432E0231691F083E02816E1F091E021
:100970002912F6C083E989833320D1F081E0F301A5
:100980009081953008F480E0B12C17C0F5E9F98327
:10099000332081F081E0F3019081983008F480E009
:1009A00043E0B42E0AC087E9898336E0B32E04C041
:1009B000B12C02C023E0B22E80E0D32CF8E0BF9E21
:1009C000D0181124D7FCD12C882321F098E89B83E0
:1009D00033E001C032E021E09D2D977009F420E062
:1009E0009D2D959595959595290F31F4882309F4BA
:1009F00092C038E0D30E8FC0811102C094E001C0D4
:100A000093E0291708F4922FEB2DF0E03196E60DD4
:100A1000F71D232F4191A1E0B0E0AC0FBD1FA20F45
:100A2000B11D4C932F5F422F431B491798F3DECF24
:100A30008111DEC09FE19D150CF494C080E2D82E98
:100A400090E79A839B818C8189279D8189279E814C
:100A500089278F839E01285F3F4F47E0BE016F5F6C
:100A60007F4FC4010E943A048111A3C01A86E3E0BB
:100A7000EB87CE0107962C0199E09C87CA844C2D08
:100A80004295407F4C0D6AE1C4010E94B503A12C40
:100A9000CE010A967C018E01055F1F4F92014C85A5
:100AA000BE016F5F7F4FC4010E947C07182F823008
:100AB00009F0BECF6CE1C4010E94970385FD98C088
:100AC0008F7109F480E2282F30E04D2DDD0C550B9D
:100AD000421753070CF044C0D82E8595859585950F
:100AE00091E0980F422F477081E009F480E0890F70
:100AF000E1E0F0E0EC0FFD1FE80FF11D215031099E
:100B00002770332781E090E001C0880F2A95EAF72B
:100B10009081892B80838FE18D150CF491CF9D2DD1
:100B200097709A878D2D8595859585958E5F292F50
:100B3000E0E18E9F200D11242A8321E0911101C054
:100B400020E0280F2C8744244394512C4C0E5D1E2A
:100B5000480E511CF9E0F81BFB8790CF16E048C007
:100B600015E046C08B81883809F43FC082E094E0EC
:100B7000EB2DF0E03196E60DF71D980FA1E0B0E007
:100B8000AC0FBD1FA80FB11D2C9121938F5F89134E
:100B9000F5CF8B85833029F58A85811122C09E018E
:100BA0002D5F3F4F41E0B201C4010E943A04882307
:100BB00011F0182F1DC09B81F2018181981313C081
:100BC0009C81828198130FC0808182FF02C0239490
:100BD000C8CEF3018387822D880F820D8F5F8083BB
:100BE00007C011E005C017E003C083E093E0C0CF69
:100BF000812F2C960FB6F894DEBF0FBECDBFDF91CC
:100C0000CF911F910F91FF90EF90DF90CF90BF9009
:100C1000AF909F908F907F906F905F904F903F909C
:100C20002F900895CF92DF92EF92FF920F931F9330
:100C3000CF93DF936C017A018B01C0E0D0E0CE1539
:100C4000DF0581F0D8016D918D01D601ED91FC9108
:100C50000190F081E02DC6010995892B11F02196B4
:100C6000EECF7E01C701DF91CF911F910F91FF90D1
:100C7000EF90DF90CF9008950E949B100F931F93E9
:100C8000CF93DF93EC0188819981009729F02A8125
:100C90003B812617370788F48B016F5F7F4F0E94D7
:100CA000D50F009761F0998388831B830A832C8179
:100CB0003D81232B11F4FC01108281E001C080E012
:100CC000DF91CF911F910F910895EDEAF1E0A08996
:100CD000B18982E08C93A485B5851C92A685B785E1
:100CE0008FEC8C93108EA489B58986E08C93A289B1
:100CF000B3898C9180618C93A289B3898C9188602F
:100D00008C93A289B3898C9180688C930288F38933
:100D1000E02D80818F7D80830895009769F0FC012C
:100D200001900020E9F73197AF01481B590BBC0136
:100D30008DEA91E00C94120680E090E008950F9304
:100D40001F93CF93DF938C01C0E0D0E0F801EC0F4C
:100D5000FD1F6491662341F08DEA91E00E946201DB
:100D6000892B11F02196F2CFCE01DF91CF911F9107
:100D70000F910895CF93DF930E949F06EC0185E3C6
:100D800091E00E948D068C0F9D1FDF91CF910895F9
:100D90008F929F92AF92BF920F931F93CF93DF9347
:100DA000CDB7DEB7A1970FB6F894DEBF0FBECDBFAB
:100DB00019A2423008F44AE08E010F5D1F4F842EC5
:100DC000912CA12CB12CA50194010E94550EE62F67
:100DD000B901CA0101501109EA3014F4E05D01C003
:100DE000E95CD801EC93232B242B252B61F7C80158
:100DF0000E948D06A1960FB6F894DEBF0FBECDBF40
:100E0000DF91CF911F910F91BF90AF909F908F90E6
:100E10000895CF93DF930E948D06EC0185E391E066
:100E20000E948D068C0F9D1FDF91CF9108950C9429
:100E30008D06EF92FF920F931F93CF93DF93FB01E9
:100E400004811581E080F180E114F10411F480E067
:100E50001AC001151105B1F0EC018C819D81080FBC
:100E6000191FB801CE010E943E06882381F3288114
:100E700039818C819D81B701820F931F0E94BA1026
:100E80001D830C8381E0DF91CF911F910F91FF9023
:100E9000EF900895DF92EF92FF920F931F93CF93FD
:100EA000DF938C01F62ED42EE52E83E590E00E9490
:100EB000940360E0F80186850E94910282E10E941D
:100EC0008D03CD2DDE2DCE018F0D911D7C01EC16F5
:100ED000FD0621F089910E948D03F9CF61E0F801B0
:100EE00086850E949102DF91CF911F910F91FF9013
:100EF000EF90DF900C948C034F925F926F927F92F1
:100F00008F929F92AF92BF92CF92DF92EF92FF9219
:100F10000F931F93CF93DF9300D0CDB7DEB74C0173
:100F20002B01D42E3901E114F10419F0F7014081AD
:100F300001C040E0B42EF0E1CF9EB00C112440E09F
:100F400062E0C4010E94B5034FE768E0C4010E945B
:100F5000B50340E864E1C4010E94B503A2016D2D10
:100F6000C4010E944A074B2D6AE1C4010E94B503E7
:100F70004CE062E0C4010E94B5036AE1C4010E9432
:100F80009703482F40686AE1C4010E94B50380EDD1
:100F9000482E87E0582E68E0C4010E949703982FDE
:100FA000907341F480FD04C081E0481A510899F71C
:100FB00083E0A0C06CE0C4010E949703D82E837127
:100FC00009F095C06114710409F45AC001151105A6
:100FD00009F456C064E1C4010E949703B82EF801D9
:100FE00080818B1508F47DC0B082BB20F1F183E5D0
:100FF00090E00E94940360E0F40186850E949102D3
:10100000BA9482E90E948D03CC20A9F08FEF90E082
:101010002C0101C0440CCA94EAF782E90E948D03B6
:10102000242D2095F301908192238421892B8083A4
:10103000CC24C39401C0C12C4C2C512C460C571C01
:10104000CB1438F482E90E948D03F2018083C394AB
:10105000F3CF80E00E948D03F201808361E0F40110
:1010600086850E9491020E948C0368E1C4010E945F
:1010700097038770E114F10421F0F701808301C028
:1010800080E0D3FC30C06114710479F101151105C1
:1010900061F1AA2051F1F8014081413021F48430FE
:1010A00041F58FEF27C0423020F1811122C042501C
:1010B0009E012F5F3F4FB301C4010E943A0481118A
:1010C00019C0F8018081680E711CF301329790817C
:1010D000898198130EC0319690818A81981309C036
:1010E00004C084E007C082E005C080E003C081E066
:1010F00001C087E00F900F90DF91CF911F910F916A
:10110000FF90EF90DF90CF90BF90AF909F908F9027
:101110007F906F905F904F900895CF93DF93EC0195
:1011200088819981009711F00E944C0F19821882D2
:101130001D821C821B821A82DF91CF910895EF924B
:10114000FF920F931F93CF93DF93EC017B018A01F2
:10115000BA010E943E06811104C0CE010E948D0892
:1011600007C01D830C83B701888199810E94BA1042
:10117000CE01DF91CF911F910F91FF90EF900895D5
:10118000FC01118210821382128215821482611571
:10119000710551F0FB0101900020E9F73197AF0193
:1011A000461B570B0C949F0808951F920F920FB681
:1011B0000F9211242F933F934F935F936F937F93DD
:1011C0008F939F93AF93BF93EF93FF938091A90168
:1011D0009091AA01A091AB01B091AC01892B8A2B0F
:1011E0008B2B59F19091A801E091A601F091A701F4
:1011F0008081892780838091A9019091AA01A09183
:10120000AB01B091AC01181619061A061B060CF0BA
:101210003DC08091A9019091AA01A091AB01B0912C
:10122000AC010197A109B1098093A9019093AA018A
:10123000A093AB01B093AC0129C080910001E2E919
:10124000F1E0E4919FEF90930001E130B9F098F064
:10125000E230C9F4909170009D7F9093700091E00E
:101260009093B0009091B100987F94609093B100FA
:101270001092B30008C010926E0005C090916F00EC
:101280009D7F90936F0060E00E949102FF91EF912B
:10129000BF91AF919F918F917F916F915F914F918E
:1012A0003F912F910F900FBE0F901F901895CF93E5
:1012B000DF93CDB7DEB765970FB6F894DEBF0FBEEC
:1012C000CDBF789484B5826084BD84B5816084BDCF
:1012D00085B5826085BD85B5816085BD80916E00D4
:1012E000816080936E001092810080918100826005
:1012F0008093810080918100816080938100809142
:1013000080008160809380008091B1008460809330
:10131000B1008091B00081608093B00080917A002C
:10132000846080937A0080917A00826080937A0052
:1013300080917A00816080937A0080917A00806841
:1013400080937A001092C10010928C0210928D024C
:1013500010928E0210928F0210924C0210924D0247
:1013600010924E0210924F020E9436036B017C01D4
:101370004B015C0128EB820E2BE0921EA11CB11CDC
:101380000E9436036C157D058E059F0528F0861694
:101390009706A806B906A0F768EE73E080E090E033
:1013A0000E94FC020E9465060E94360360934C0274
:1013B00070934D0280934E0290934F0286E291E02B
:1013C0000E9417070E9436036B017C014B015C01F0
:1013D0003AE0830E911CA11CB11C0E9436036C15CF
:1013E0007D058E059F0528F086169706A806B90686
:1013F000A0F781E0809360020E9465061FB7F89411
:1014000080918E01811127C0E8E8F1E08491EAE63D
:10141000F1E09491E82FF0E0EE0FFF1FE859FF4F45
:10142000A591B491EC91E92321F461E08AE00E9456
:10143000910261E08AE00E94C0028CB580618CBD9F
:101440008CB580648CBD61E08DE00E94C00261E0DB
:101450008BE00E94C00280918E018F5F80938E018D
:101460001FBF61E080919E020E94C00261E08091F6
:101470009E020E94910280919F028F3F41F44FE0B3
:1014800062E080E992E00E94B50313E025C060E0CD
:101490000E94C00220919F0230E0F901E458FF4F02
:1014A0008491F901E05AFE4F0491F901E258FE4F90
:1014B00014911123F9F081110E946802E12FF0E0EC
:1014C000EE0FFF1FEE58FF4FA591B491EC91E02372
:1014D00089F0D5CF115039F162E370E080E090E0FF
:1014E0000E94FC0262E080E992E00E94970384FF80
:1014F0001AC0F0CF61E080919F020E94C00260E0BC
:1015000080919F020E94910283E090E00197F1F7A1
:1015100061E080919F020E94910262E370E080E0AE
:1015200090E00E94FC0240E064E280E992E00E94C8
:10153000B50340E066E280E992E00E94B50346E22E
:1015400068E480E992E00E94B50340E864E580E940
:1015500092E00E94B50349EA66E580E992E00E94C4
:10156000B50343E068E580E992E00E94B50348EEE8
:101570006AE580E992E00E94B50340E46AE280E90E
:1015800092E00E94B5034DE362E280E992E00E949E
:10159000B50368E280E992E00E949703982F937068
:1015A000933039F0482F436068E280E992E00E946E
:1015B000B5036EE680E992E00E949703182F87E159
:1015C00091E00E949F06612F70E080E090E040E192
:1015D0000E94C806103979F038F4123191F01838A9
:1015E00099F48CE091E012C0113941F0123961F4A4
:1015F00084EF90E00BC084E091E008C08CEF90E0B5
:1016000005C080EE90E002C083ED90E00E94BA0633
:1016100011501E3F20F080E990E00E94BA068CE253
:1016200091E00E94BA0654EF452E55245394612C44
:10163000712C8E010F5F1F4F62E9262E61E0362E5E
:101640000E943603672B682B692B41F40E943603F6
:10165000623071058105910508F4E0C00E943603EF
:10166000C0909901D0909A01E0909B01F0909C016C
:101670006C157D058E059F0540F46093990170936C
:101680009A0180939B0190939C01C0909901D09006
:101690009A01E0909B01F0909C019B01AC012C19F8
:1016A0003D094E095F0969017A013AEFC316D10479
:1016B000E104F10408F4B2C06093990170939A01B7
:1016C00080939B0190939C01409258025092590242
:1016D00060925A0270925B0210925C0210925D025C
:1016E00010925E0210925F0280915002909151021E
:1016F000A0915202B09153028093540290935502EC
:10170000A0935602B09357020E9436036093500292
:101710007093510280935202909353020E943603B9
:1017200060934C0270934D0280934E0290934F024F
:101730000E9436036B017C0188E391E00E94170749
:101740004AE061E070E080E090E00E94C8068FE32C
:1017500091E00E9417074AE0C701B6010E94C8063F
:1017600084E591E00E941707809150029091510208
:10177000A0915202B0915302A7019601281B390B88
:101780004A0B5B0BCA01B9014AE00E94C80684E516
:1017900091E00E9417078091500290915102A09110
:1017A0005202B0915302C0905402D0905502E09082
:1017B0005602F0905702BC01CD016C197D098E09CB
:1017C0009F094AE00E94C80683E491E00E9417073F
:1017D0000E9436034AE00E94C80685E491E00E9418
:1017E00009070E9436034B015C016B017C0135E067
:1017F000C30ED11CE11CF11C0E943603681579054B
:101800008A059B0508F0D7C10E94360360935002F9
:1018100070935102809352029093530280E992E0B8
:101820000E94D203882309F4C3C180E992E00E9498
:101830000002882309F4BCC180910001863021F0A8
:101840008F3F09F0CDC003C0F101F49071C086E074
:1018500080930001F10184918F3F09F4C1C0813070
:1018600009F443C048F1823009F061C01092B00021
:101870001092B1008091B00082608093B00080919E
:10188000B10081608093B100E4E8F1E0E491F0E020
:10189000EE0FFF1FEC58FE4F859194919093A70196
:1018A0008093A601E6E6F1E0E491E093A80161E00F
:1018B00086E00E94C0025CC014BC15BC84B5826086
:1018C00084BD85B5816085BDE4E8F1E0E491F0E098
:1018D000EE0FFF1FEC58FE4F85919491E6E6F1E084
:1018E000E491E0939001F12C25C0109280001092B9
:1018F00081008091810088608093810080918100C7
:10190000816080938100E4E8F1E0E491F0E0EE0F83
:10191000FF1FEC58FE4F85919491E6E6F1E0E491CB
:10192000E0938F0161E086E00E94C0022CC0F82E97
:10193000F7FC56C061E086E00E94C002FF2021F063
:10194000F2E0FF121DC014C085B5887F836085BD9D
:101950008CE787BD40929501509296016092970165
:101960007092980180916E00826080936E0038C002
:101970008091B100887F83608093B10089EF21C09E
:1019800021E0F2121AC080918100887F81608093EB
:1019900081004FE35FE150938900409388004092BB
:1019A0009101509292016092930170929401809102
:1019B0006F00826080936F0013C052E0F51210C078
:1019C0008FE38093B3004092A9015092AA016092E4
:1019D000AB017092AC0180917000826080937000C6
:1019E0008CE491E00E94170767E371E0CE01409616
:1019F0000E94C008D12C80919202D81608F054C0E1
:101A00008D2D90E0FC01E057FD4F7F0183818031F7
:101A100018F08FE591E002C083E291E00E94170781
:101A2000F701638170E080E090E040E10E94C80629
:101A3000F7018381803118F06FE571E002C063E245
:101A400071E0C8010E94C008B801CE0140960E9412
:101A5000190789819A810E944C0FF70183811B86A7
:101A60001A861D861C861F861E8640E1B80190E0FE
:101A70000E942B0EF80101900020E9F73197AF0189
:101A8000401B510BB801CE010A960E949F08BE016F
:101A9000665F7F4FCE0140960E9419078A859B851D
:101AA0000E944C0FD394A7CF85E391E00E948D064E
:101AB00086E591E00E941707E888F988E114F104AF
:101AC00069F0F7018081882349F0082E000C990BFA
:101AD0000E94A010F70181937F01F3CFAC88BD88ED
:101AE000A114B10431F4C12CD12CAA24A394B12C9B
:101AF00003C0CC24C394D12C67E371E0C8010E94D9
:101B0000C008EC88FD88CE14DF0430F5AE14BF04A5
:101B100008F47501E889F989EE0DFF1DB080108287
:101B2000688979896C0D7D1D6115710561F0FB0176
:101B300001900020E9F73197AF01461B570BC80110
:101B40000E949F0803C0C8010E948D088889998956
:101B5000FC01EE0DFF1DB0828D819E81E980FA802F
:101B6000892B49F061E671E0C7010E94B110DD24C4
:101B7000D394892B09F0D12CC7010E944C0FDD2092
:101B800049F08DE691E00E94090785E391E00E940B
:101B90008D0604C08FE791E00E94090768EB7BE0A7
:101BA00080E090E00E94FC02888999890E944C0F95
:101BB0000E94D10145CDC616D706E806F90608F001
:101BC0001BCE22CEEDEAF1E01382128288EE93E082
:101BD000A0E0B0E084839583A683B7838BE091E097
:101BE0009183808385EC90E09587848784EC90E0F6
:101BF0009787868780EC90E0918B808B81EC90E0DA
:101C0000938B828B82EC90E0958B848B86EC90E0BA
:101C1000978B868B118E128E138E148EEAE4F2E06F
:101C200016821782108611861286138614861586F0
:101C300016861786108A118A128A138A148A158AC0
:101C4000E0E9F2E08DE191E0918380838AE086878C
:101C500089E087870895BB27FB015527AA27880FAE
:101C6000991FAA1FA41710F0A41B83955051B9F710
:101C7000A05DAA3308F0A95DA193009779F7B1118F
:101C8000B1931192CB010C94450EDC01FC01672F3E
:101C900071917723E1F7329704C07C916D93708343
:101CA0006291AE17BF07C8F30895A1E21A2EAA1BCE
:101CB000BB1BFD010DC0AA1FBB1FEE1FFF1FA217FC
:101CC000B307E407F50720F0A21BB30BE40BF50BF9
:101CD000661F771F881F991F1A9469F76095709582
:101CE000809590959B01AC01BD01CF0108952F9285
:101CF0003F924F925F926F927F928F929F92AF929C
:101D0000BF92CF92DF92EF92FF920F931F93CF93E8
:101D1000DF93CDB7DEB7CA1BDB0B0FB6F894DEBF7F
:101D20000FBECDBF09942A88398848885F846E84A5
:101D30007D848C849B84AA84B984C884DF80EE80EF
:101D4000FD800C811B81AA81B981CE0FD11D0FB6F8
:101D5000F894DEBF0FBECDBFED010895EE0FFF1F5B
:101D60000590F491E02D09940F931F93CF93DF9387
:101D70008230910510F482E090E0E091A202F091AF
:101D8000A30220E030E0A0E0B0E0309719F14081FC
:101D900051810281138148175907C8F084179507AC
:101DA00069F4109731F012960C93129713961C93C6
:101DB00027C00093A2021093A30222C0211531056F
:101DC00019F04217530718F49A01BD01EF01DF0122
:101DD000F801DBCF21153105F9F0281B390B243030
:101DE000310580F48A819B816115710521F0FB0129
:101DF0009383828304C09093A3028093A202FE0186
:101E0000329644C0FE01E20FF31F8193919322505A
:101E10003109398328833AC02091A0023091A10270
:101E2000232B41F420910301309104013093A1024E
:101E30002093A0022091010130910201211531056A
:101E400041F42DB73EB74091050150910601241B86
:101E5000350BE091A002F091A102E217F307A0F484
:101E60002E1B3F0B2817390778F0AC014E5F5F4FF0
:101E70002417350748F04E0F5F1F5093A10240937F
:101E8000A0028193919302C0E0E0F0E0CF01DF91E6
:101E9000CF911F910F910895CF93DF93009709F48D
:101EA00081C0FC01329713821282A091A202B091EC
:101EB000A302109781F420813181820F931F20911A
:101EC000A0023091A1022817390751F5F093A10221
:101ED000E093A00267C0ED0120E030E0CE17DF07FD
:101EE00040F44A815B819E0141155105F1F0EA0100
:101EF000F5CFD383C28340815181840F951FC817CA
:101F0000D90759F488819981840F951F029691838E
:101F100080838A819B81938382832115310529F4F3
:101F2000F093A302E093A2023DC0E901FB83EA83A0
:101F300049915991C40FD51FEC17FD0761F48081B9
:101F40009181840F951F0296E9019983888382818C
:101F500093819B838A83E0E0F0E012968D919C91BF
:101F60001397009719F0FD01DC01F7CF8D919C913B
:101F700011979D012E5F3F4F820F931F2091A0026A
:101F80003091A1022817390769F4309729F410928B
:101F9000A3021092A20202C013821282B093A10285
:101FA000A093A002DF91CF910895A0E0B0E0EBED07
:101FB000FFE00C947B0EEC01009721F4CB010E9412
:101FC000B40EB4C0FC01E60FF71F9C01225031098A
:101FD000E217F30708F4A8C0D9010D911C911197DD
:101FE00006171707B0F00530110508F49BC0C801AB
:101FF00004978617970708F495C002501109061B2D
:10200000170B019311936D937C93CF010E944C0F9A
:1020100089C05B01A01AB10A4C01800E911EA091EB
:10202000A202B091A302612C712CE12CF12C10972B
:1020300009F446C08D919C911197A815B905B1F589
:102040006C0142E0C40ED11CCA14DB0478F14C01CF
:102050008A189B08640142E0C40ED11C1296BC9001
:1020600012971396AC91B5E0CB16D10440F0B28232
:10207000A38391828082D9016D937C9309C00E5F06
:102080001F4F800F911FF90191838083EB2DFA2F51
:10209000E114F10431F0D7011396FC93EE931297FB
:1020A00041C0F093A302E093A2023CC068167906F7
:1020B00008F43C017D0112960D90BC91A02DB7CF84
:1020C0008091A0029091A10288169906E1F466160B
:1020D0007706C8F48091010190910201009741F4C4
:1020E0008DB79EB74091050150910601841B950B59
:1020F000E817F907C8F4F093A102E093A002F901F0
:10210000718360830FC0CB010E94B40E7C010097E5
:1021100059F0A801BE010E94A810CE010E944C0FE8
:10212000C70104C0CE0102C080E090E0CDB7DEB7A9
:10213000EEE00C94970E81E090E0F8940C94C110BE
:102140009111089581568A5108F480528558089556
:10215000FB01DC0102C001900D9241505040D8F7C4
:102160000895FB01DC018D91019080190110D9F3D4
:10217000990B0895FB01DC0101900D920020E1F71D
:062180000895F894FFCF62
:10218600FF0000A40280000000000062011206F9B0
:1021960000AF012A0108011C01000000008604D2DC
:1021A600030002203000564D4450565F317C315FAB
:1021B600564D4450560D0A00564D4450455F003A60
:1021C600323A007C005F564D445045005549442044
:1021D600746167203A004D657373616765203A2024
:1021E6000041362035332039462046370041757484
:1021F600686F72697A656420616363657373002032
:0E2206004163636573732064656E69656400EF
:00000001FF
