:100000000C9464000C948C000C948C000C948C0068
:100010000C948C000C948C000C948C000C94D202E8
:100020000C948C000C948C000C948C000C948C0020
:100030000C948C000C948C000C948C000C948C0010
:100040000C9490030C948C000C9471020C944B0251
:100050000C948C000C948C000C948C000C948C00F0
:100060000C948C000C948C000000000023002600EF
:10007000290000000008000201000003040700003E
:1000800000000000000000000000240027002A00FB
:10009000010204081020408001020408102001021F
:1000A0000408102000000000250028002B00040494
:1000B0000404040404040202020202020303030310
:1000C000030302000A0E060E11241FBECFEFD8E074
:1000D000DEBFCDBF22E0A6E7B1E001C01D92A4398A
:1000E000B207E1F711E0A0E0B1E0EAE5F2E202C018
:1000F00005900D92A637B107D9F710E0C3E6D0E01E
:1001000004C02197FE010E940D0FC236D107C9F726
:100110000E949A0B0C9420110C940000CF92DF9255
:10012000EF92FF920F931F93CF93DF936C017A01AD
:100130008B01C0E0D0E0CE15DF0581F0D8016D91D4
:100140008D01D601ED91FC910190F081E02DC60169
:100150000995892B11F02196EECF7E01C701DF9121
:10016000CF911F910F91FF90EF90DF90CF90089566
:10017000089580E090E00895FC01538D448D252F73
:1001800030E0842F90E0821B930B541710F0CF9631
:10019000089501970895FC01918D828D981761F063
:1001A000828DDF01A80FB11D5D968C91928D9F5FAE
:1001B0009F73928F90E008958FEF9FEF0895FC0159
:1001C000918D828D981731F0828DE80FF11D858D0C
:1001D00090E008958FEF9FEF0895FC01918D228D9F
:1001E000892F90E0805C9F4F821B91098F73992724
:1001F000089589E891E00E94ED0021E0892B09F43F
:1002000020E0822F0895FC01848DDF01A80FB11D2D
:10021000A35ABF4F2C91848D90E001968F7399273C
:10022000848FA689B7892C93A089B1898C9183701A
:1002300080648C93938D848D981306C00288F38913
:10024000E02D80818F7D80830895EF92FF920F9340
:100250001F93CF93DF93EC0181E0888F9B8D8C8D72
:10026000981305C0E889F989808185FD26C0F62E9E
:100270000B8D10E00F5F1F4F0F731127E02E8C8D39
:10028000E8120CC00FB607FCFACFE889F989808123
:1002900085FFF5CFCE010E940301F1CF8B8DFE01CA
:1002A000E80FF11DE35AFF4FF0829FB7F8940B8FD0
:1002B000EA89FB89808180620AC09FB7F894EE8941
:1002C000FF896083E889F9898081837080648083F5
:1002D0009FBF81E090E0DF91CF911F910F91FF9040
:1002E000EF900895CF93DF93EC01888D8823C9F0B8
:1002F000EA89FB89808185FD05C0A889B9898C912F
:1003000086FD0FC00FB607FCF5CF808185FFF2CFC9
:10031000A889B9898C9185FFEDCFCE010E94030198
:10032000E7CFDF91CF91089580E090E0892B29F00D
:100330000E94F90081110C9400000895833081F02F
:1003400028F4813099F08230A1F008958730A9F027
:100350008830B9F08430D1F4809180008F7D03C063
:10036000809180008F7780938000089584B58F7787
:1003700002C084B58F7D84BD08958091B0008F77D1
:1003800003C08091B0008F7D8093B00008953FB787
:10039000F8948091770190917801A0917901B091C2
:1003A0007A0126B5A89B05C02F3F19F00196A11D23
:1003B000B11D3FBFBA2FA92F982F8827820F911DFB
:1003C000A11DB11DBC01CD0142E0660F771F881F42
:1003D000991F4A95D1F708958F929F92AF92BF923D
:1003E000CF92DF92EF92FF926B017C010E94C701D6
:1003F0004B015C01C114D104E104F104F1F00E944D
:10040000C701DC01CB0188199909AA09BB09883EFB
:100410009340A105B10570F321E0C21AD108E108AB
:10042000F10888EE880E83E0981EA11CB11CC1144F
:10043000D104E104F10419F7DDCFFF90EF90DF90D4
:10044000CF90BF90AF909F908F900895BC016E5F4A
:100450007F4FDC01ED91FC910190F081E02D40E0B7
:10046000099591E0811190E0892F0895FC01118296
:10047000108213821282158214826115710551F067
:10048000FB0101900020E9F73197AF01461B570BA4
:100490000C945D0B08951F920F920FB60F921124CA
:1004A0002F933F934F935F936F937F938F939F937C
:1004B000AF93BF93EF93FF9389E891E00E9403010C
:1004C000FF91EF91BF91AF919F918F917F916F912C
:1004D0005F914F913F912F910F900FBE0F901F9002
:1004E00018951F920F920FB60F9211242F938F938E
:1004F0009F93EF93FF93E0919901F0919A0180818E
:10050000E0919F01F091A00182FD12C09081809145
:10051000A2018F5F8F732091A301821751F0E091A8
:10052000A201F0E0E757FE4F958F8093A20101C032
:100530008081FF91EF919F918F912F910F900FBE2E
:100540000F901F9018951F93CF93DF93282F30E0C3
:10055000F901EE58FF4F8491F901E057FF4FD49114
:10056000F901E255FF4FC491CC23C1F0162F811140
:100570000E949E01EC2FF0E0EE0FFF1FEC55FF4FA5
:10058000A591B4919FB7F894111104C08C91D095A6
:10059000D82302C0EC91DE2BDC939FBFDF91CF917B
:1005A0001F9108951F920F920FB60F9211242F934F
:1005B0003F934F935F936F937F938F939F93AF93EB
:1005C000BF93EF93FF938091850190918601A09155
:1005D0008701B0918801892B8A2B8B2B59F190913F
:1005E0008201E0918301F0918401808189278083D9
:1005F0008091850190918601A0918701B091880139
:10060000181619061A061B060CF03DC080918501CC
:1006100090918601A0918701B09188010197A1096D
:10062000B1098093850190938601A0938701B093CF
:10063000880129C080910001E2ECF0E0E4919FEF95
:1006400090930001E130B9F098F0E230C9F4909154
:1006500070009D7F9093700091E09093B000909116
:10066000B100987F94609093B1001092B30008C0DD
:1006700010926E0005C090916F009D7F90936F0067
:1006800060E00E94A302FF91EF91BF91AF919F9113
:100690008F917F916F915F914F913F912F910F902B
:1006A0000FBE0F901F901895CF93DF9390E0FC0141
:1006B000E057FF4F2491FC01E255FF4F84918823BE
:1006C00061F190E0880F991FFC01EA57FF4FC59137
:1006D000D491FC01EC55FF4FA591B491611109C073
:1006E0009FB7F8948881209582238883EC912E23EC
:1006F0000BC0623061F49FB7F8948881322F309537
:1007000083238883EC912E2B2C939FBF06C08FB739
:10071000F894E8812E2B28838FBFDF91CF91089525
:100720001F920F920FB60F9211242F933F938F9326
:100730009F93AF93BF9380917E0190917F01A09191
:100740008001B09181013091760123E0230F2D3794
:1007500020F40196A11DB11D05C026E8230F0296C5
:10076000A11DB11D2093760180937E0190937F019E
:10077000A0938001B09381018091770190917801DD
:10078000A0917901B0917A010196A11DB11D8093CC
:10079000770190937801A0937901B0937A01BF918A
:1007A000AF919F918F913F912F910F900FBE0F901E
:1007B0001F90189508958EBD00000DB407FEFDCF63
:1007C0008EB508958CBD9DBD08951F93CF93DF9383
:1007D000EC01162F83E590E00E94E20360E08E8535
:1007E0000E94A302812F80680E94DB0380E00E94A8
:1007F000DB03182F61E08E850E94A302812FDF9119
:10080000CF911F9108950F931F93CF93DF93EC0126
:10081000062F142F83E590E00E94E20360E08E85AE
:100820000E94A302802F0E94DB03812F0E94DB0322
:1008300061E08E85DF91CF911F910F910C94A302FF
:100840008F929F92AF92CF92EF92FF920F931F934E
:10085000CF93DF9300D000D01F92CDB7DEB74C010D
:1008600082E08D8340E064E2C4010E94030440E022
:1008700066E2C4010E94030446E268E4C4010E94E7
:10088000030486E28B838D81823040F16CE1C401E8
:100890000E94E503482F4F776CE1C4010E940304D6
:1008A00087E08C83A12CC12CCE0104967C018E01A3
:1008B0000B5F1F4F9E012F5F3F4F41E0BE016D5FF9
:1008C0007F4FC4010E943A0A81110BC08D81823092
:1008D00039F481E09C81911104C008C084E001C01A
:1008E00081E091E0823019F090E001C091E0892F21
:1008F0000F900F900F900F900F90DF91CF911F915D
:100900000F91FF90EF90CF90AF909F908F900895B0
:10091000CF92DF92EF92FF920F931F93CF93DF93CB
:10092000EC016B01142F790140E062E00E940304A6
:1009300044E06AE0CE010E94030440E864E1CE0195
:100940000E940304A601612FCE010E94080A43E021
:1009500062E0CE010E94030408E813E16AE0CE01E0
:100960000E94E50382FF13C040E062E0CE010E94D6
:10097000030464E4CE010E94E503F701808362E48E
:10098000CE010E94E503F701818380E004C001509D
:10099000110921F783E0DF91CF911F910F91FF9013
:1009A000EF90DF90CF9008952F923F924F925F92F9
:1009B0006F927F928F929F92AF92BF92CF92DF926F
:1009C000EF92FF920F931F93CF93DF93CDB7DEB7D4
:1009D0002C970FB6F894DEBF0FBECDBF413508F09F
:1009E0000BC1342E3B014C016CE10E94E503482F02
:1009F0004F776CE1C4010E9403042224239432E067
:100A0000231691F083E02816E1F091E02912F6C058
:100A100083E989833320D1F081E0F301908195301F
:100A200008F480E0B12C17C0F5E9F983332081F098
:100A300081E0F3019081983008F480E043E0B42E27
:100A40000AC087E9898336E0B32E04C0B12C02C006
:100A500023E0B22E80E0D32CF8E0BF9ED018112402
:100A6000D7FCD12C882321F098E89B8333E001C088
:100A700032E021E09D2D977009F420E09D2D9595A1
:100A800095959595290F31F4882309F492C038E0A3
:100A9000D30E8FC0811102C094E001C093E02917EA
:100AA00008F4922FEB2DF0E03196E60DF71D232F81
:100AB0004191A1E0B0E0AC0FBD1FA20FB11D4C935E
:100AC0002F5F422F431B491798F3DECF8111DEC001
:100AD0009FE19D150CF494C080E2D82E90E79A8394
:100AE0009B818C8189279D8189279E8189278F837E
:100AF0009E01285F3F4F47E0BE016F5F7F4FC401FB
:100B00000E9488048111A3C01A86E3E0EB87CE011E
:100B100007962C0199E09C87CA844C2D4295407F12
:100B20004C0D6AE1C4010E940304A12CCE010A9677
:100B30007C018E01055F1F4F92014C85BE016F5FE6
:100B40007F4FC4010E943A0A182F823009F0BECFAD
:100B50006CE1C4010E94E50385FD98C08F7109F422
:100B600080E2282F30E04D2DDD0C550B4217530746
:100B70000CF044C0D82E85958595859591E0980F09
:100B8000422F477081E009F480E0890FE1E0F0E056
:100B9000EC0FFD1FE80FF11D21503109277033279D
:100BA00081E090E001C0880F2A95EAF79081892BB7
:100BB00080838FE18D150CF491CF9D2D97709A87CE
:100BC0008D2D8595859585958E5F292FE0E18E9FEA
:100BD000200D11242A8321E0911101C020E0280F6B
:100BE0002C8744244394512C4C0E5D1E480E511CFE
:100BF000F9E0F81BFB8790CF16E048C015E046C02F
:100C00008B81883809F43FC082E094E0EB2DF0E05E
:100C10003196E60DF71D980FA1E0B0E0AC0FBD1FB7
:100C2000A80FB11D2C9121938F5F8913F5CF8B8570
:100C3000833029F58A85811122C09E012D5F3F4FA7
:100C400041E0B201C4010E948804882311F0182FEA
:100C50001DC09B81F2018181981313C09C81828108
:100C600098130FC0808182FF02C02394C8CEF30185
:100C70008387822D880F820D8F5F808307C011E0EC
:100C800005C017E003C083E093E0C0CF812F2C960E
:100C90000FB6F894DEBF0FBECDBFDF91CF911F918D
:100CA0000F91FF90EF90DF90CF90BF90AF909F900B
:100CB0008F907F906F905F904F903F902F9008950E
:100CC000AF92BF92CF92DF92EF92FF920F931F935A
:100CD000CF93DF9300D000D000D0CDB7DEB77C013A
:100CE000DC0114964D915C9115976D917C9189E88A
:100CF00091E00E948E0087E391E00E94260760ED5C
:100D000077E086E00E944607F701A480B580A11431
:100D1000B10431F4C12CD12CAA24A394B12C03C06A
:100D2000CC24C394D12C69E371E0CE0101960E94DA
:100D30003602D70114960D911C911597C016D10655
:100D4000D8F4A016B10608F48501D701ED91FC9105
:100D50001197E00FF11FB08010826D917C916C0DA6
:100D60007D1DCE0101960E947E0BF701808191814D
:100D7000FC01E00FF11FB0828D819E81892B49F02B
:100D800066E471E089819A810E94101111E0892B3B
:100D900009F010E0CE0101960E94950B112369F035
:100DA00082E591E00E9438076AEF70E080E090E011
:100DB0000E94EC0164EC79E00CC085E691E00E94B1
:100DC00038076AEF70E080E090E00E94EC016CED83
:100DD00075E086E00E94460726960FB6F894DEBFBF
:100DE0000FBECDBFDF91CF911F910F91FF90EF907C
:100DF000DF90CF90BF90AF9008950E94FA100F93AC
:100E00001F93CF93DF93EC0188819981009729F09C
:100E10002A813B812617370788F48B016F5F7F4F4C
:100E20000E943410009761F0998388831B830A83A2
:100E30002C813D81232B11F4FC01108281E001C043
:100E400080E0DF91CF911F910F910895009769F095
:100E5000FC0101900020E9F73197AF01481B590BC5
:100E6000BC0189E891E00C948E0080E090E0089548
:100E7000CF93DF930E942607EC0187E391E00E9465
:100E800026078C0F9D1FDF91CF9108954F925F929F
:100E90006F927F928F929F92AF92BF92CF92DF928A
:100EA000EF92FF920F931F93CF938B0190910001CC
:100EB000891721F09F3F09F012C204C0E2ECF0E074
:100EC000C49179C080930001E2ECF0E0C491CF3F7F
:100ED00009F405C2C13009F448C050F1C23009F02C
:100EE0006AC01092B0001092B1009091B000926070
:100EF0009093B0009091B10091609093B100282F31
:100F000030E0F901E255FF4FE491F0E0EE0FFF1FF2
:100F1000EC55FF4F459154915093840140938301C8
:100F2000F901E057FF4FE491E0938201C2E0D3C1A1
:100F300014BC15BC94B5926094BD95B5916095BDF7
:100F4000282F30E0F901E255FF4FE491F0E0EE0F79
:100F5000FF1FEC55FF4F45915491F901E057FF4FAA
:100F6000E491E0938702C0E0B6C110928000109235
:100F70008100909181009860909381009091810010
:100F8000916090938100282F30E0F901E255FF4FE6
:100F9000E491F0E0EE0FFF1FEC55FF4F45915491A7
:100FA000F901E057FF4FE491E093860261E00E946F
:100FB0005403C1E0B0C0C7FD92C161E00E94540378
:100FC0008C2F8D7F09F0A7C04801A12CB12C60E0C7
:100FD00072E18AE790E0A50194010E94EE0E2901DA
:100FE0003A0169017A0121E0C21AD108E108F10849
:100FF0008FEFC816D104E104F10409F008F44BC0E6
:1010000060E472E48FE090E0A50194010E94EE0E8E
:1010100069017A0181E0C81AD108E108F108C230FB
:1010200001F52FEFC216D104E104F10409F008F430
:10103000EAC060E970ED83E090E0A50194010E94B0
:10104000EE0E69017A0181E0C81AD108E108F108C1
:101050002FEFC216D104E104F10409F030F583E06A
:1010600053C08FEFC816D104E104F104B1F0A8F029
:1010700068E478EE81E090E0A50194010E94EE0E14
:1010800069017A0181E0C81AD108E108F108CC238E
:1010900009F4EEC0E4C081E001C082E0C11134C0B7
:1010A00095B5987F892B85BD68C068E478EE81E0AE
:1010B00090E0A50194010E94EE0E69017A0181E0A1
:1010C000C81AD108E108F1082FEFC216D104E104D3
:1010D000F10409F008F495C064E274EF80E090E058
:1010E000A50194010E94EE0E69017A0181E0C81AFF
:1010F000D108E108F1082FEFC216D104E104F10490
:1011000011F008F082C085E09091B100987F892BA2
:101110008093B10032C04801A12CB12C60E072E193
:101120008AE790E0A50194010E94EE0E69017A0120
:1011300081E0C81AD108E108F108C114D10421E006
:10114000E206F10488F068E478EE81E090E0A50121
:1011500094010E94EE0E69017A0181E0C81AD1085B
:10116000E108F10883E001C081E0C13031F49091E1
:101170008100987F892B809381009801220F331F73
:10118000AAEFB0E00E94DF0E28EE33E040E050E02E
:101190000E94860EC13099F0C23019F1C1119FC072
:1011A000C7BC20938C0230938D0240938E025093E3
:1011B0008F0280916E00826080936E0090C0D0920A
:1011C0008900C0928800209388023093890240935E
:1011D0008A0250938B0280916F00826080936F002F
:1011E0007EC0C092B3002093850130938601409366
:1011F0008701509388018091700082608093700015
:101200006EC084E081CF82E07FCF62E17AE780E048
:1012100090E0A50194010E94EE0E69017A0181E03F
:10122000C81AD108E108F1088FEFC816D104E1040B
:10123000F10499F090F0D301C2012AE0B595A79589
:10124000979587952A95D1F76C017D0121E0C21A07
:10125000D108E108F10887E057CF86E055CF2FEF9E
:10126000C216D104E104F10409F078F684E016CF47
:101270008FEFC816D104E104F10459F150F162E195
:101280007AE780E090E0A50194010E94EE0E6901EA
:101290007A0181E0C81AD108E108F1082FEFC216DF
:1012A000D104E104F10499F090F0D301C2013AE0D5
:1012B000B595A795979587953A95D1F76C017D01DE
:1012C00021E0C21AD108E108F10885E0E9CE84E006
:1012D000E7CE83E0E5CE61E00E94540375CECF9166
:1012E0001F910F91FF90EF90DF90CF90BF90AF9044
:1012F0009F908F907F906F905F904F900895E9E856
:10130000F1E0A089B18982E08C93A485B5851C9217
:10131000A685B7858FEC8C93108EA489B58986E05D
:101320008C93A289B3898C9180618C93A289B389B3
:101330008C9188608C93A289B3898C9180688C93FE
:101340000288F389E02D80818F7D80830895CF927C
:10135000DF92EF92FF920F931F932FB7F894C090F4
:101360007E01D0907F01E0908001F09081012FBF3D
:10137000DC01CB018C0D9D1DAE1DBF1D4FB7F89438
:1013800000917E0110917F012091800130918101B7
:101390004FBF0C151D052E053F0528F0801791073E
:1013A000A207B30758F71F910F91FF90EF90DF90BE
:1013B000CF900895EF92FF920F931F93CF93DF93F7
:1013C0006115710511F480E01CC041155105C1F093
:1013D0007B01EC018C819D818A01080F191FB801E6
:1013E000CE010E94FF06882371F3288139818C8108
:1013F0009D81B701820F931F0E9419111D830C83D9
:1014000081E0DF91CF911F910F91FF90EF900895B0
:10141000DF92EF92FF920F931F93CF93DF938C0194
:10142000F62ED42EE52E83E590E00E94E20360E0E4
:10143000F80186850E94A30282E10E94DB03CD2D84
:10144000DE2DCE018F0D911D7C01EC16FD0621F0E5
:1014500089910E94DB03F9CF61E0F80186850E9443
:10146000A302DF91CF911F910F91FF90EF90DF903A
:101470000C94DA034F925F926F927F928F929F92B9
:10148000AF92BF92CF92DF92EF92FF920F931F9392
:10149000CF93DF9300D0CDB7DEB74C012B01D42E14
:1014A0003901E114F10419F0F701408101C040E075
:1014B000B42EF0E1CF9EB00C112440E062E0C401F4
:1014C0000E9403044FE768E0C4010E94030440E85F
:1014D00064E1C4010E940304A2016D2DC4010E94B5
:1014E000080A4B2D6AE1C4010E9403044CE062E04B
:1014F000C4010E9403046AE1C4010E94E503482F6D
:1015000040686AE1C4010E94030480ED482E87E030
:10151000582E68E0C4010E94E503982F907341F4AF
:1015200080FD04C081E0481A510899F783E0A0C00B
:101530006CE0C4010E94E503D82E837109F095C0C8
:101540006114710409F45AC00115110509F456C05B
:1015500064E1C4010E94E503B82EF80180818B1577
:1015600008F47DC0B082BB20F1F183E590E00E94D9
:10157000E20360E0F40186850E94A302BA9482E946
:101580000E94DB03CC20A9F08FEF90E02C0101C07A
:10159000440CCA94EAF782E90E94DB03242D2095CB
:1015A000F301908192238421892B8083CC24C394DE
:1015B00001C0C12C4C2C512C460C571CCB1438F4B8
:1015C00082E90E94DB03F2018083C394F3CF80E0C1
:1015D0000E94DB03F201808361E0F40186850E94B2
:1015E000A3020E94DA0368E1C4010E94E503877048
:1015F000E114F10421F0F701808301C080E0D3FC05
:1016000030C06114710479F10115110561F1AA204E
:1016100051F1F8014081413021F4843041F58FEFE0
:1016200027C0423020F1811122C042509E012F5F1D
:101630003F4FB301C4010E948804811119C0F80111
:101640008081680E711CF301329790818981981313
:101650000EC0319690818A81981309C004C084E03D
:1016600007C082E005C080E003C081E001C087E0E0
:101670000F900F90DF91CF911F910F91FF90EF90FE
:10168000DF90CF90BF90AF909F908F907F906F90A2
:101690005F904F900895CF93DF93EC0188819981FB
:1016A000009711F00E94AB0F198218821D821C82D4
:1016B0001B821A82DF91CF910895EF92FF920F93D0
:1016C0001F93CF93DF93EC017B018A01BA010E9443
:1016D000FF06811104C0CE010E944B0B07C01D8381
:1016E0000C83B701888199810E941911CE01DF9185
:1016F000CF911F910F91FF90EF900895CF93DF93BB
:10170000EC016115710559F0FB0101900020E9F72A
:101710003197AF01461B570B0E945D0B02C00E9420
:101720004B0BCE01DF91CF910895FC018081918117
:101730000C94AB0FCF93DF93CDB7DEB76C970FB69A
:10174000F894DEBF0FBECDBF789484B5826084BDAF
:1017500084B5816084BD85B5826085BD85B58160B5
:1017600085BD80916E00816080936E001092810033
:1017700080918100826080938100809181008160EE
:1017800080938100809180008160809380008091AF
:10179000B10084608093B1008091B000816080933B
:1017A000B00080917A00846080937A0080917A0002
:1017B000826080937A0080917A00816080937A00C1
:1017C00080917A00806880937A001092C100109214
:1017D00068021092690210926A0210926B021092D3
:1017E00028021092290210922A0210922B0268EB12
:1017F0007BE080E090E00E94A70968EE73E080E063
:1018000090E00E94EC010E947F092FB7F89480912C
:101810007E0190917F01A0918001B09181012FBF45
:101820008093280290932902A0932A02B0932B025E
:1018300088E291E00E9426076AE070E080E090E094
:101840000E94A70981E080933C020E947F09909149
:101850006D0220916C028CE0FE013396A0E7B2E0AD
:1018600001900D928A95E1F720937C0290937D027E
:101870001FB7F89480917B01811127C0E8EBF0E05D
:101880008491EAE9F0E09491E82FF0E0EE0FFF1F79
:10189000EA57FF4FA591B491EC91E92321F461E05F
:1018A0008AE00E94A30261E08AE00E9454038CB5A2
:1018B00080618CBD8CB580648CBD61E08DE00E9440
:1018C000540361E08BE00E94540380917B018F5FA1
:1018D00080937B011FBF61E080917C020E945403D2
:1018E00061E080917C020E94A30280917D028F3F83
:1018F00041F44FE062E08EE692E00E94030413E0C0
:1019000025C060E00E94540320917D0230E0F9017F
:10191000EE58FF4F8491F901E057FF4F0491F90110
:10192000E255FF4F14911123F9F081110E949E019D
:10193000E12FF0E0EE0FFF1FE859FF4FA591B491A2
:10194000EC91E02389F0D5CF115039F162E370E0DA
:1019500080E090E00E94EC0162E08EE692E00E945E
:10196000E50384FF1AC0F0CF61E080917D020E9400
:10197000540360E080917D020E94A30283E090E026
:101980000197F1F761E080917D020E94A30262E37A
:1019900070E080E090E00E94EC0140E064E28EE6BE
:1019A00092E00E94030440E066E28EE692E00E942C
:1019B000030446E268E48EE692E00E94030440E8F5
:1019C00064E58EE692E00E94030449EA66E58EE64D
:1019D00092E00E94030443E068E58EE692E00E94F4
:1019E000030448EE6AE58EE692E00E94030440E4B8
:1019F0006AE28EE692E00E9403044DE362E28EE624
:101A000092E00E94030468E28EE692E00E94E50301
:101A1000982F9370933039F0482F436068E28EE638
:101A200092E00E94030480E696E090937F02809308
:101A30007E028AE391E00E9438078EE692E00E94DF
:101A40002004882309F4CCC08EE692E00E9426028E
:101A5000882309F4C5C010927D0110927C0169E3CE
:101A600071E0CE0147960E94360210E0809170022C
:101A7000181708F043C0812F90E09C0124593D4F76
:101A80007901F9018581803118F463E271E002C0C7
:101A900066E271E0CE0101960E9436024D815E81C0
:101AA00069817A81CE0147960E94DA09CE010196BA
:101AB0000E94950BF70185811A8A198A1C8A1B8A54
:101AC0001E8A1D8A40E1BE016F5F7F4F90E00E9439
:101AD0005C0EBE016F5F7F4FCE0141960E947E0B70
:101AE0004D895E8969897A89CE0147960E94DA0913
:101AF000CE0141960E94950B1F5FB8CF0F89188DBC
:101B00000115110569F0F8018081882349F0082E3C
:101B1000000C990B0E94FF10F80181938F01F3CF05
:101B2000EB8CFC8C80918402909185020F89188D3A
:101B3000E816F90619F5609180027091810201158D
:101B4000110519F061157105A9F46115710541F0D0
:101B5000E114F104F1F1FB01808181110FC039C062
:101B600001151105B1F1E114F10499F1F801808139
:101B700090E048C0C8010E94101144C00115110531
:101B800039F0A701B80180E892E00E945D0B04C023
:101B900080E892E00E944B0B00917E0210917F0240
:101BA0001A8219821C821B821E821D826F89788D87
:101BB0006115710531F04B8D5C8DCE0101960E944F
:101BC0005D0BCE010196F8010995CE0101960E94A8
:101BD000950BCE0147960E94950B0E9494012DCF44
:101BE00080917C0190917D01019690937D0180937D
:101BF0007C01039794F369E371E080E892E00E942E
:101C00007E0BEBCF892B09F0BCCFE3CF80E892E0CD
:101C10000C94950BE9E8F1E01382128288EE93E0D0
:101C2000A0E0B0E084839583A683B7838BE091E046
:101C30009183808385EC90E09587848784EC90E0A5
:101C40009787868780EC90E0918B808B81EC90E089
:101C5000938B828B82EC90E0958B848B86EC90E06A
:101C6000978B868B118E128E138E148EE6E2F2E025
:101C700016821782108611861286138614861586A0
:101C800016861786108A118A128A138A148A158A70
:101C900069E371E080E892E00E943602ECE6F2E04F
:101CA0008DE191E0938382838AE0808B9FEF918B1B
:101CB000808389E081830895BB27FB015527AA27EC
:101CC000880F991FAA1FA41710F0A41B83955051C9
:101CD000B9F7A05DAA3308F0A95DA193009779F741
:101CE000B111B1931192CB010C94760EDC01FC0181
:101CF000672F71917723E1F7329704C07C916D9340
:101D000070836291AE17BF07C8F30895A1E21A2E3F
:101D1000AA1BBB1BFD010DC0AA1FBB1FEE1FFF1F8F
:101D2000A217B307E407F50720F0A21BB30BE40BDF
:101D3000F50B661F771F881F991F1A9469F7609526
:101D40007095809590959B01AC01BD01CF010895E0
:101D50002F923F924F925F926F927F928F929F92BB
:101D6000AF92BF92CF92DF92EF92FF920F931F93A9
:101D7000CF93DF93CDB7DEB7CA1BDB0B0FB6F8945A
:101D8000DEBF0FBECDBF09942A88398848885F849A
:101D90006E847D848C849B84AA84B984C884DF800B
:101DA000EE80FD800C811B81AA81B981CE0FD11DEF
:101DB0000FB6F894DEBF0FBECDBFED010895A29F10
:101DC000B001B39FC001A39F700D811D1124911D0F
:101DD000B29F700D811D1124911D0895052E97FB52
:101DE0001EF400940E94050F57FD07D00E94860E36
:101DF00007FC03D04EF40C94050F50954095309598
:101E000021953F4F4F4F5F4F089590958095709566
:101E100061957F4F8F4F9F4F0895EE0FFF1F0590E5
:101E2000F491E02D09940F931F93CF93DF938230A9
:101E3000910510F482E090E0E0919202F09193021B
:101E400020E030E0A0E0B0E0309719F1408151810E
:101E50000281138148175907C8F08417950769F460
:101E6000109731F012960C93129713961C9327C07B
:101E7000009392021093930222C02115310519F0AC
:101E80004217530718F49A01BD01EF01DF01F80171
:101E9000DBCF21153105F9F0281B390B2430310532
:101EA00080F48A819B816115710521F0FB01938388
:101EB000828304C09093930280939202FE01329633
:101EC00044C0FE01E20FF31F819391932250310928
:101ED000398328833AC02091900230919102232BBC
:101EE00041F4209103013091040130939102209339
:101EF000900220910101309102012115310541F438
:101F00002DB73EB74091050150910601241B350BBA
:101F1000E0919002F0919102E217F307A0F42E1BDA
:101F20003F0B2817390778F0AC014E5F5F4F24173D
:101F3000350748F04E0F5F1F509391024093900277
:101F40008193919302C0E0E0F0E0CF01DF91CF9167
:101F50001F910F910895CF93DF93009709F481C0EB
:101F6000FC01329713821282A0919202B0919302E7
:101F7000109781F420813181820F931F209190026C
:101F8000309191022817390751F5F0939102E093AF
:101F9000900267C0ED0120E030E0CE17DF0740F48B
:101FA0004A815B819E0141155105F1F0EA01F5CFAF
:101FB000D383C28340815181840F951FC817D907ED
:101FC00059F488819981840F951F029691838083AB
:101FD0008A819B81938382832115310529F4F093B3
:101FE0009302E09392023DC0E901FB83EA834991A9
:101FF0005991C40FD51FEC17FD0761F480819181C1
:10200000840F951F0296E9019983888382819381C9
:102010009B838A83E0E0F0E012968D919C91139768
:10202000009719F0FD01DC01F7CF8D919C9111977C
:102030009D012E5F3F4F820F931F209190023091A0
:1020400091022817390769F4309729F41092930206
:102050001092920202C013821282B0939102A09356
:102060009002DF91CF910895A0E0B0E0EAE3F0E1C3
:102070000C94AC0EEC01009721F4CB010E94130FDD
:10208000B4C0FC01E60FF71F9C0122503109E21792
:10209000F30708F4A8C0D9010D911C9111970617F8
:1020A0001707B0F00530110508F49BC0C80104976C
:1020B0008617970708F495C002501109061B170BE5
:1020C000019311936D937C93CF010E94AB0F89C054
:1020D0005B01A01AB10A4C01800E911EA0919202E0
:1020E000B0919302612C712CE12CF12C109709F422
:1020F00046C08D919C911197A815B905B1F56C0159
:1021000042E0C40ED11CCA14DB0478F14C018A18D9
:102110009B08640142E0C40ED11C1296BC90129739
:102120001396AC91B5E0CB16D10440F0B282A383F4
:1021300091828082D9016D937C9309C00E5F1F4FFD
:10214000800F911FF90191838083EB2DFA2FE11409
:10215000F10431F0D7011396FC93EE93129741C02E
:10216000F0939302E09392023CC06816790608F45B
:102170003C017D0112960D90BC91A02DB7CF8091AE
:1021800090029091910288169906E1F466167706FE
:10219000C8F48091010190910201009741F48DB73C
:1021A0009EB74091050150910601841B950BE817DD
:1021B000F907C8F4F0939102E0939002F90171835A
:1021C00060830FC0CB010E94130F7C01009759F070
:1021D000A801BE010E940711CE010E94AB0FC701EA
:1021E00004C0CE0102C080E090E0CDB7DEB7EEE0E3
:1021F0000C94C80E81E090E0F8940C942011911199
:10220000089581568A5108F4805285580895FB013B
:10221000DC0102C001900D9241505040D8F7089562
:10222000FB01DC018D91019080190110D9F3990B0C
:102230000895FB01DC0101900D920020E1F7089563
:1022400010E0C3E6D0E004C0FE010E940D0F21960D
:0A225000C436D107C9F7F894FFCF98
:10225A00FF0000940280000000000025018E00BCEF
:10226A00007201ED00CB00DF0000000000D4042062
:10227A000426022030002000564D4450565F317C1F
:10228A00315F564D4450560D0A002D2D2D52656171
:10229A0064792D2D2D0041362035332039462046CC
:1022AA003700417574686F72697A65642061636387
:1022BA006573730A00204163636573732064656EF6
:0622CA006965640A0000D2
:107E0000112484B714BE81FFF0D085E080938100F7
:107E100082E08093C00088E18093C10086E0809377
:107E2000C20080E18093C4008EE0C9D0259A86E02C
:107E300020E33CEF91E0309385002093840096BBD3
:107E4000B09BFECF1D9AA8958150A9F7CC24DD24C4
:107E500088248394B5E0AB2EA1E19A2EF3E0BF2EE7
:107E6000A2D0813461F49FD0082FAFD0023811F036
:107E7000013811F484E001C083E08DD089C08234E0
:107E800011F484E103C0853419F485E0A6D080C0E4
:107E9000853579F488D0E82EFF2485D0082F10E0AE
:107EA000102F00270E291F29000F111F8ED06801E7
:107EB0006FC0863521F484E090D080E0DECF843638
:107EC00009F040C070D06FD0082F6DD080E0C81688
:107ED00080E7D80618F4F601B7BEE895C0E0D1E017
:107EE00062D089930C17E1F7F0E0CF16F0E7DF06D8
:107EF00018F0F601B7BEE89568D007B600FCFDCFD4
:107F0000A601A0E0B1E02C9130E011968C91119780
:107F100090E0982F8827822B932B1296FA010C0160
:107F200087BEE89511244E5F5F4FF1E0A038BF0790
:107F300051F7F601A7BEE89507B600FCFDCF97BE46
:107F4000E89526C08437B1F42ED02DD0F82E2BD052
:107F50003CD0F601EF2C8F010F5F1F4F84911BD097
:107F6000EA94F801C1F70894C11CD11CFA94CF0C13
:107F7000D11C0EC0853739F428D08EE10CD085E9AC
:107F80000AD08FE07ACF813511F488E018D01DD067
:107F900080E101D065CF982F8091C00085FFFCCF94
:107FA0009093C60008958091C00087FFFCCF809118
:107FB000C00084FD01C0A8958091C6000895E0E648
:107FC000F0E098E1908380830895EDDF803219F02E
:107FD00088E0F5DFFFCF84E1DECF1F93182FE3DFCA
:107FE0001150E9F7F2DF1F91089580E0E8DFEE27F6
:047FF000FF270994CA
:027FFE00040479
:0400000300007E007B
:00000001FF