:100000000C94CB000C94F3000C94F3000C94F300CC
:100010000C94F3000C94F3000C94F3000C94E90896
:100020000C94F3000C94F3000C94F3000C94F30084
:100030000C94F3000C94F3000C94F3000C94F30074
:100040000C9436030C94F3000C94BB010C949501B2
:100050000C94F3000C94F3000C94F3000C94F30054
:100060000C94F3000C94F30000000000240027001F
:100070002A000000000023002600290000000008DC
:10008000000201000003040700000000000000005F
:100090005741524E494E473A20436F6D6D756E6918
:1000A000636174696F6E206661696C7572652C207E
:1000B000697320746865204D465243353232207092
:1000C000726F7065726C7920636F6E6E65637465B4
:1000D000643F00203D2028756E6B6E6F776E29009F
:1000E000203D20636F756E74657266656974206368
:1000F00068697000203D2076322E3000203D207649
:10010000312E3000203D2076302E3000203D20283A
:10011000636C6F6E6529004669726D776172652048
:1001200056657273696F6E3A203078005363616E62
:10013000205049434320746F20736565205549441E
:100140002C2053414B2C20747970652C20616E64F7
:10015000206461746120626C6F636B732E2E2E00BD
:10016000010204081020408001020408102001024E
:100170000408102000000000250028002B000404C3
:10018000040404040404020202020202030303033F
:1001900003030200EA0C11241FBECFEFD8E0DEBF3C
:1001A000CDBF22E0AAE7B1E001C01D92AC38B20792
:1001B000E1F711E0A0E0B1E0E6E9FFE102C005905F
:1001C0000D92AA37B107D9F710E0CBECD0E004C00C
:1001D0002197FE010E94B60DCA3CD107C9F70E94C3
:1001E0006B090C94C90F0C940000089580E090E016
:1001F0000895FC01538D448D252F30E0842F90E02D
:10020000821B930B541710F0CF9608950197089511
:10021000FC01918D828D981761F0828DDF01A80F0E
:10022000B11D5D968C91928D9F5F9F73928F90E030
:1002300008958FEF9FEF089585E991E00E94FB01FB
:1002400021E0892B09F420E0822F0895EF92FF929C
:100250000F931F93CF93DF93EC0181E0888F9B8DE9
:100260008C8D981305C0E889F989808185FD26C0A9
:10027000F62E0B8D10E00F5F1F4F0F731127E02E2E
:100280008C8DE8120CC00FB607FCFACFE889F9890B
:10029000808185FFF5CFCE010E944602F1CF8B8D84
:1002A000FE01E80FF11DE35AFF4FF0829FB7F8946B
:1002B0000B8FEA89FB89808180620AC09FB7F8941E
:1002C000EE89FF896083E889F98980818370806481
:1002D00080839FBF81E090E0DF91CF911F910F91CC
:1002E000FF90EF900895CF93DF93EC01888D8823E2
:1002F000C9F0EA89FB89808185FD05C0A889B98993
:100300008C9186FD0FC00FB607FCF5CF808185FF6D
:10031000F2CFA889B9898C9185FFEDCFCE010E94DB
:100320004602E7CFDF91CF9108951F920F920FB64B
:100330000F9211242F933F934F935F936F937F936B
:100340008F939F93AF93BF93EF93FF9385E991E0D2
:100350000E944602FF91EF91BF91AF919F918F91C3
:100360007F916F915F914F913F912F910F900FBEB1
:100370000F901F9018951F920F920FB60F92112495
:100380002F938F939F93EF93FF93E091A501F091AB
:10039000A6018081E091AB01F091AC0182FD12C019
:1003A00090818091AE018F5F8F732091AF01821792
:1003B00051F0E091AE01F0E0EB56FE4F958F809347
:1003C000AE0101C08081FF91EF919F918F912F919C
:1003D0000F900FBE0F901F901895FC01918D828D8C
:1003E000981731F0828DE80FF11D858D90E008950A
:1003F0008FEF9FEF0895FC01918D228D892F90E062
:10040000805C9F4F821B91098F739927089580E02C
:1004100090E0892B29F00E941C0181110C940000AE
:1004200008953FB7F8948091860190918701A0913B
:100430008801B091890126B5A89B05C02F3F19F00E
:100440000196A11DB11D3FBFBA2FA92F982F882754
:10045000820F911DA11DB11DBC01CD0142E0660FAF
:10046000771F881F991F4A95D1F70895BC016E5FC9
:100470007F4FDC01ED91FC910190F081E02D40E097
:10048000099591E0811190E0892F0895FC01848DF8
:10049000DF01A80FB11DA35ABF4F2C91848D90E0AE
:1004A00001968F739927848FA689B7892C93A08989
:1004B000B1898C91837080648C93938D848D981313
:1004C00006C00288F389E02D80818F7D80830895A6
:1004D000833081F028F4813099F08230A1F00895C2
:1004E0008730A9F08830B9F08430D1F48091800051
:1004F0008F7D03C0809180008F7780938000089566
:1005000084B58F7702C084B58F7D84BD08958091B6
:10051000B0008F7703C08091B0008F7D8093B000D2
:1005200008951F93CF93DF93282F30E0F901E4580B
:10053000FF4F8491F901E05AFE4FD491F901E2583E
:10054000FE4FC491CC23C1F0162F81110E94680286
:10055000EC2FF0E0EE0FFF1FEC58FE4FA591B49189
:100560009FB7F894111104C08C91D095D82302C084
:10057000EC91DE2BDC939FBFDF91CF911F9108950B
:10058000CF93DF9390E0FC01E05AFE4F2491FC01F1
:10059000E258FE4F8491882361F190E0880F991F03
:1005A000FC01E859FF4FC591D491FC01EC58FE4F76
:1005B000A591B491611109C09FB7F89488812095E5
:1005C00082238883EC912E230BC0623061F49FB7A5
:1005D000F8948881322F309583238883EC912E2BD9
:1005E0002C939FBF06C08FB7F894E8812E2B2883E9
:1005F0008FBFDF91CF9108958F929F92AF92BF925C
:10060000CF92DF92EF92FF926B017C010E94110268
:100610004B015C01C114D104E104F104F1F00E942A
:100620001102DC01CB0188199909AA09BB09883E8E
:100630009340A105B10570F321E0C21AD108E10889
:10064000F10888EE880E83E0981EA11CB11CC1142D
:10065000D104E104F10419F7DDCFFF90EF90DF90B2
:10066000CF90BF90AF909F908F9008951F920F9260
:100670000FB60F9211242F933F938F939F93AF93B5
:10068000BF938091910190919201A0919301B091BB
:1006900094013091850123E0230F2D3720F401963A
:1006A000A11DB11D05C026E8230F0296A11DB11D95
:1006B000209385018093910190939201A0939301DF
:1006C000B09394018091860190918701A091880157
:1006D000B09189010196A11DB11D8093860190936F
:1006E0008701A0938801B0938901BF91AF919F9139
:1006F0008F913F912F910F900FBE0F901F901895E3
:1007000008958EBD00000DB407FEFDCF8EB508958F
:100710008CBD9DBD08951F93CF93DF93EC01162FE1
:1007200083E590E00E94880360E08E850E9491023C
:10073000812F80680E94810380E00E948103182F2E
:1007400061E08E850E949102812FDF91CF911F91F0
:1007500008950F931F93CF93DF93EC01062F142F6F
:1007600083E590E00E94880360E08E850E949102FC
:10077000802F0E948103812F0E94810361E08E857A
:10078000DF91CF911F910F910C9491028F929F92C4
:10079000AF92CF92EF92FF920F931F93CF93DF937D
:1007A00000D000D01F92CDB7DEB74C0182E08D8320
:1007B00040E064E2C4010E94A90340E066E2C40193
:1007C0000E94A90346E268E4C4010E94A90386E2EC
:1007D0008B838D81823040F16CE1C4010E948B03D8
:1007E000482F4F776CE1C4010E94A90387E08C83F6
:1007F000A12CC12CCE0104967C018E010B5F1F4FF2
:100800009E012F5F3F4F41E0BE016D5F7F4FC401EE
:100810000E94900781110BC08D81823039F481E0F4
:100820009C81911104C008C084E001C081E091E086
:10083000823019F090E001C091E0892F0F900F9065
:100840000F900F900F90DF91CF911F910F91FF901C
:10085000EF90CF90AF909F908F900895CF92DF92BE
:10086000EF92FF920F931F93CF93DF93EC016B01F5
:10087000142F790140E062E00E94A90344E06AE09D
:10088000CE010E94A90340E864E1CE010E94A903C1
:10089000A601612FCE010E945E0743E062E0CE0117
:1008A0000E94A90308E813E16AE0CE010E948B03CD
:1008B00082FF13C040E062E0CE010E94A90364E41D
:1008C000CE010E948B03F701808362E4CE010E9477
:1008D0008B03F701818380E004C00150110921F7E7
:1008E00083E0DF91CF911F910F91FF90EF90DF9008
:1008F000CF9008952F923F924F925F926F927F9286
:100900008F929F92AF92BF92CF92DF92EF92FF921F
:100910000F931F93CF93DF93CDB7DEB72C970FB60E
:10092000F894DEBF0FBECDBF413508F00BC1342EA9
:100930003B014C016CE10E948B03482F4F776CE127
:10094000C4010E94A9032224239432E0231691F0CB
:1009500083E02816E1F091E02912F6C083E989834B
:100960003320D1F081E0F3019081953008F480E0EC
:10097000B12C17C0F5E9F983332081F081E0F30150
:100980009081983008F480E043E0B42E0AC087E9F3
:10099000898336E0B32E04C0B12C02C023E0B22E0E
:1009A00080E0D32CF8E0BF9ED0181124D7FCD12CC6
:1009B000882321F098E89B8333E001C032E021E0F6
:1009C0009D2D977009F420E09D2D95959595959511
:1009D000290F31F4882309F492C038E0D30E8FC078
:1009E000811102C094E001C093E0291708F4922F0E
:1009F000EB2DF0E03196E60DF71D232F4191A1E09C
:100A0000B0E0AC0FBD1FA20FB11D4C932F5F422F62
:100A1000431B491798F3DECF8111DEC09FE19D157E
:100A20000CF494C080E2D82E90E79A839B818C814D
:100A300089279D8189279E8189278F839E01285F31
:100A40003F4F47E0BE016F5F7F4FC4010E942E04FD
:100A50008111A3C01A86E3E0EB87CE0107962C0133
:100A600099E09C87CA844C2D4295407F4C0D6AE1E9
:100A7000C4010E94A903A12CCE010A967C018E011B
:100A8000055F1F4F92014C85BE016F5F7F4FC40110
:100A90000E949007182F823009F0BECF6CE1C4018C
:100AA0000E948B0385FD98C08F7109F480E2282F86
:100AB00030E04D2DDD0C550B421753070CF044C0B0
:100AC000D82E85958595859591E0980F422F477092
:100AD00081E009F480E0890FE1E0F0E0EC0FFD1F18
:100AE000E80FF11D215031092770332781E090E094
:100AF00001C0880F2A95EAF79081892B80838FE1C6
:100B00008D150CF491CF9D2D97709A878D2D85951D
:100B1000859585958E5F292FE0E18E9F200D11240C
:100B20002A8321E0911101C020E0280F2C87442462
:100B30004394512C4C0E5D1E480E511CF9E0F81BDD
:100B4000FB8790CF16E048C015E046C08B818838FF
:100B500009F43FC082E094E0EB2DF0E03196E60D21
:100B6000F71D980FA1E0B0E0AC0FBD1FA80FB11D9D
:100B70002C9121938F5F8913F5CF8B85833029F5D5
:100B80008A85811122C09E012D5F3F4F41E0B20155
:100B9000C4010E942E04882311F0182F1DC09B81D0
:100BA000F2018181981313C09C81828198130FC038
:100BB000808182FF02C02394C8CEF3018387822DF7
:100BC000880F820D8F5F808307C011E005C017E09A
:100BD00003C083E093E0C0CF812F2C960FB6F8942A
:100BE000DEBF0FBECDBFDF91CF911F910F91FF9060
:100BF000EF90DF90CF90BF90AF909F908F907F90BD
:100C00006F905F904F903F902F900895CF92DF921A
:100C1000EF92FF920F931F93CF93DF936C017A01B2
:100C20008B01C0E0D0E0CE15DF0581F0D8016D91D9
:100C30008D01D601ED91FC910190F081E02DC6016E
:100C40000995892B11F02196EECF7E01C701DF9126
:100C5000CF911F910F91FF90EF90DF90CF9008956B
:100C60000E94A30F0F931F93CF93DF93EC01888112
:100C70009981009729F02A813B812617370788F44C
:100C80008B016F5F7F4F0E94DD0E009761F09983AB
:100C900088831B830A832C813D81232B11F4FC0163
:100CA000108281E001C080E0DF91CF911F910F9110
:100CB0000895009769F0FC0101900020E9F7319751
:100CC000AF01481B590BBC0185E991E00C94060665
:100CD00080E090E008958F929F92AF92BF920F9321
:100CE0001F93CF93DF93CDB7DEB7A1970FB6F894DC
:100CF000DEBF0FBECDBF19A2423008F44AE08E011C
:100D00000F5D1F4F842E912CA12CB12CA5019401B5
:100D10000E945D0DE62FB901CA0101501109EA30A8
:100D200014F4E05D01C0E95CD801EC93232B242B83
:100D3000252B61F7C8010E945906A1960FB6F894B9
:100D4000DEBF0FBECDBFDF91CF911F910F91BF903E
:100D5000AF909F908F900895EF92FF920F931F9303
:100D6000CF93DF936115710511F480E01CC041152C
:100D70005105C1F07B01EC018C819D818A01080F36
:100D8000191FB801CE010E943206882371F3288111
:100D900039818C819D81B701820F931F0E94C20F00
:100DA0001D830C8381E0DF91CF911F910F91FF9004
:100DB000EF900895E5E9F1E0A089B18982E08C9394
:100DC000A485B5851C92A685B7858FEC8C93108E73
:100DD000A489B58986E08C93A289B3898C918061BE
:100DE0008C93A289B3898C9188608C93A289B389F2
:100DF0008C9180688C930288F389E02D80818F7DAF
:100E0000808308950F931F93CF93DF938C01C0E0ED
:100E1000D0E0F801EC0FFD1F6491662341F085E9F5
:100E200091E00E942601892B11F02196F2CFCE018C
:100E3000DF91CF911F910F910895CF93DF930E947F
:100E40000207EC0185E391E00E9459068C0F9D1F7B
:100E5000DF91CF910895CF92DF92EF92FF920F939F
:100E60001F932FB7F894C0909101D0909201E09019
:100E70009301F09094012FBFDC01CB018C0D9D1DDF
:100E8000AE1DBF1D4FB7F8940091910110919201D2
:100E900020919301309194014FBF0C151D052E0533
:100EA0003F0528F080179107A207B30758F71F9155
:100EB0000F91FF90EF90DF90CF900895DF92EF9227
:100EC000FF920F931F93CF93DF938C01F62ED42EB6
:100ED000E52E83E590E00E94880360E0F8018685B6
:100EE0000E94910282E10E948103CD2DDE2DCE0170
:100EF0008F0D911D7C01EC16FD0621F089910E9459
:100F00008103F9CF61E0F80186850E949102DF91AB
:100F1000CF911F910F91FF90EF90DF900C94800381
:100F20004F925F926F927F928F929F92AF92BF92F9
:100F3000CF92DF92EF92FF920F931F93CF93DF93A5
:100F400000D0CDB7DEB74C012B01D42E3901E1140E
:100F5000F10419F0F701408101C040E0B42EF0E146
:100F6000CF9EB00C112440E062E0C4010E94A903AE
:100F70004FE768E0C4010E94A90340E864E1C401AE
:100F80000E94A903A2016D2DC4010E945E074B2D92
:100F90006AE1C4010E94A9034CE062E0C4010E941E
:100FA000A9036AE1C4010E948B03482F40686AE1EB
:100FB000C4010E94A90380ED482E87E0582E68E006
:100FC000C4010E948B03982F907341F480FD04C0EC
:100FD00081E0481A510899F783E0A0C06CE0C40191
:100FE0000E948B03D82E837109F095C0611471049F
:100FF00009F45AC00115110509F456C064E1C40191
:101000000E948B03B82EF80180818B1508F47DC0F7
:10101000B082BB20F1F183E590E00E94880360E09C
:10102000F40186850E949102BA9482E90E948103AC
:10103000CC20A9F08FEF90E02C0101C0440CCA94A1
:10104000EAF782E90E948103242D2095F301908123
:1010500092238421892B8083CC24C39401C0C12C8A
:101060004C2C512C460C571CCB1438F482E90E94AE
:101070008103F2018083C394F3CF80E00E94810357
:10108000F201808361E0F40186850E9491020E9452
:10109000800368E1C4010E948B038770E114F104AE
:1010A00021F0F701808301C080E0D3FC30C06114DF
:1010B000710479F10115110561F1AA2051F1F801CE
:1010C0004081413021F4843041F58FEF27C0423018
:1010D00020F1811122C042509E012F5F3F4FB3018A
:1010E000C4010E942E04811119C0F8018081680E8C
:1010F000711CF30132979081898198130EC031964B
:1011000090818A81981309C004C084E007C082E0FE
:1011100005C080E003C081E001C087E00F900F9020
:10112000DF91CF911F910F91FF90EF90DF90CF90C3
:10113000BF90AF909F908F907F906F905F904F90F7
:101140000895CF93DF93EC0188819981009711F086
:101150000E94540E198218821D821C821B821A82E0
:10116000DF91CF910895EF92FF920F931F93CF934A
:10117000DF93EC017B018A01BA010E9432068111E2
:1011800004C0CE010E94A10807C01D830C83B701D3
:10119000888199810E94C20FCE01DF91CF911F916A
:1011A0000F91FF90EF900895FC011182108213823D
:1011B0001282158214826115710551F0FB010190B4
:1011C0000020E9F73197AF01461B570B0C94B30889
:1011D00008951F920F920FB60F9211242F933F93F1
:1011E0004F935F936F937F938F939F93AF93BF932F
:1011F000EF93FF9380918D0190918E01A0918F01CB
:10120000B0919001892B8A2B8B2B59F190918C01F5
:10121000E0918A01F0918B01808189278083809100
:101220008D0190918E01A0918F01B09190011816BF
:1012300019061A061B060CF03DC080918D01909195
:101240008E01A0918F01B09190010197A109B10980
:1012500080938D0190938E01A0938F01B0939001A4
:1012600029C080910001E2E9F1E0E4919FEF9093C1
:101270000001E130B9F098F0E230C9F490917000CB
:101280009D7F9093700091E09093B0009091B10099
:10129000987F94609093B1001092B30008C01092B0
:1012A0006E0005C090916F009D7F90936F0060E08D
:1012B0000E949102FF91EF91BF91AF919F918F9109
:1012C0007F916F915F914F913F912F910F900FBE42
:1012D0000F901F901895CF93DF93CDB7DEB765972A
:1012E0000FB6F894DEBF0FBECDBF789484B5826090
:1012F00084BD84B5816084BD85B5826085BD85B5BA
:10130000816085BD80916E00816080936E00109237
:1013100081008091810082608093810080918100B2
:101320008160809381008091800081608093800043
:101330008091B10084608093B1008091B0008160A1
:101340008093B00080917A00846080937A008091CD
:101350007A00826080937A0080917A008160809325
:101360007A0080917A00806880937A001092C100A0
:101370001092740210927502109276021092770207
:1013800010923402109235021092360210923702F7
:1013900068EB7BE080E090E00E942B0768EE73E052
:1013A00080E090E00E94FC020E94DA062FB7F894D9
:1013B0008091910190919201A0919301B09194013B
:1013C0002FBF8093340290933502A0933602B093DE
:1013D000370286E291E00E9459066AE070E080E000
:1013E00090E00E942B0781E0809348020E94DA0679
:1013F0001FB7F89480917A01811127C0E8E8F1E0E5
:101400008491EAE6F1E09491E82FF0E0EE0FFF1FFF
:10141000E859FF4FA591B491EC91E92321F461E0E3
:101420008AE00E94910261E08AE00E94C0028CB5CD
:1014300080618CBD8CB580648CBD61E08DE00E94C4
:10144000C00261E08BE00E94C00280917A018F5F50
:1014500080937A011FBF61E0809186020E94C002E2
:1014600061E0809186020E949102809187028F3F05
:1014700041F44FE062E088E792E00E94A90313E0A4
:1014800025C060E00E94C0022091870230E0F9018F
:10149000E458FF4F8491F901E05AFE4F0491F9019D
:1014A000E258FE4F14911123F9F081110E94680255
:1014B000E12FF0E0EE0FFF1FEE58FF4FA591B49122
:1014C000EC91E02389F0D5CF115039F162E370E05F
:1014D00080E090E00E94FC0262E088E792E00E94D7
:1014E0008B0384FF1AC0F0CF61E0809187020E94D5
:1014F000C00260E0809187020E94910283E090E048
:101500000197F1F761E0809187020E94910262E306
:1015100070E080E090E00E94FC0240E064E288E736
:1015200092E00E94A90340E066E288E792E00E9410
:10153000A90346E268E488E792E00E94A90340E834
:1015400064E588E792E00E94A90349EA66E588E736
:1015500092E00E94A90343E068E588E792E00E94D8
:10156000A90348EE6AE588E792E00E94A90340E4F7
:101570006AE288E792E00E94A9034DE362E288E70D
:1015800092E00E94A90368E288E792E00E948B0340
:10159000982F9370933039F0482F436068E288E7C2
:1015A00092E00E94A9036EE688E792E00E948B0316
:1015B000182F87E191E00E940207612F70E080E020
:1015C00090E040E10E946B06103979F038F4123156
:1015D00091F0183899F48CE091E012C0113941F083
:1015E000123961F484EF90E00BC084E091E008C010
:1015F0008CEF90E005C080EE90E002C083ED90E0BB
:101600000E941D0711501E3F20F080E990E00E94CB
:101610001D078CE291E00E941D07CE0101967C011E
:1016200058EE452E53E0552E612C712C6FE9262E75
:101630006FE0362E72E9872E71E0972E88E792E0F0
:101640000E94C603882309F4C2C188E792E00E9481
:101650003602882309F4BBC180910001863021F055
:101660008F3F09F0C7C003C0F401149170C086E039
:1016700080930001F40114911F3F09F4BBC01130A5
:1016800009F443C048F1123009F061C01092B00073
:101690001092B1008091B00082608093B000809180
:1016A000B10081608093B100E4E8F1E0E491F0E002
:1016B000EE0FFF1FEC58FE4F8591949190938B0194
:1016C00080938A01E6E6F1E0E491E0938C0161E029
:1016D00086E00E94C0025AC014BC15BC84B582606A
:1016E00084BD85B5816085BDE4E8F1E0E491F0E07A
:1016F000EE0FFF1FEC58FE4F85919491E6E6F1E066
:10170000E491E0937C0110E024C0109280001092DC
:1017100081008091810088608093810080918100A8
:10172000816080938100E4E8F1E0E491F0E0EE0F65
:10173000FF1FEC58FE4F85919491E6E6F1E0E491AD
:10174000E0937B0161E086E00E94C00229C017FDA2
:1017500051C061E086E00E94C002112319F01230EE
:10176000E9F414C085B5887F836085BD8DE387BDAE
:1017700040928101509282016092830170928401B3
:1017800080916E00826080936E0034C08091B100C1
:10179000887F83608093B1008CE71DC01130C1F455
:1017A00080918100887F81608093810030928900E0
:1017B0002092880040927D0150927E0160927F01CC
:1017C0007092800180916F00826080936F0012C0E0
:1017D000123081F48FE98093B30040928D015092D2
:1017E0008E0160928F0170929001809170008260F2
:1017F0008093700088E391E00E94590667E371E0EE
:10180000CE0140960E94D408D12C80917A02D8163D
:1018100008F057C00D2D10E008581D4FF8018381C6
:10182000803118F08BE491E002C083E291E00E94E5
:101830005906F801638170E080E090E040E10E9489
:101840006B06F8018381803118F06BE471E002C00F
:1018500063E271E0C7010E94D4084D815E81698115
:101860007A81CE0140960E94AC0689819A810E94BD
:10187000540EF80183811B861A861D861C861F86DE
:101880001E8640E1B70190E00E94330DF701019000
:101890000020E9F73197AF014E195F09B701CE017A
:1018A0000A960E94B3084E855F856A857B85CE01C6
:1018B00040960E94AC068A859B850E94540ED39464
:1018C000A4CF85E391E00E94590682E491E00E9452
:1018D0005906088919890115110569F0F8018081F7
:1018E000882349F0082E000C990B0E94A80FF801DC
:1018F00081938F01F3CFAC88BD88A114B10431F47A
:10190000C12CD12CAA24A394B12C03C0CC24C39401
:10191000D12C67E371E0C7010E94D4080C891D89AE
:10192000C016D10630F5A016B10608F48501E88985
:10193000F989E00FF11FB0801082688979896C0DF8
:101940007D1D6115710561F0FB0101900020E9F733
:101950003197AF01461B570BC7010E94B30803C064
:10196000C7010E94A10888899989FC01E00FF11F35
:10197000B0828D819E8109811A81892B49F06DE4A5
:1019800071E0C8010E94B90FDD24D394892B09F0BE
:10199000D12CC8010E94540EDD2039F089E591E078
:1019A0000E94590685E391E002C08BE691E00E9417
:1019B000590685E391E00E94590668EB7BE080E0E0
:1019C00090E00E94FC02888999890E94540E0E942E
:1019D000070234CEE5E9F1E01382128288EE93E04B
:1019E000A0E0B0E084839583A683B7838BE091E089
:1019F0009183808385EC90E09587848784EC90E0E8
:101A00009787868780EC90E0918B808B81EC90E0CB
:101A1000938B828B82EC90E0958B848B86EC90E0AC
:101A2000978B868B118E128E138E148EE2E3F2E06A
:101A300016821782108611861286138614861586E2
:101A400016861786108A118A128A138A148A158AB2
:101A5000E8E7F2E08DE191E0918380838AE0868778
:101A600089E087870895BB27FB015527AA27880FA0
:101A7000991FAA1FA41710F0A41B83955051B9F702
:101A8000A05DAA3308F0A95DA193009779F7B11181
:101A9000B1931192CB010C944D0DDC01FC01672F29
:101AA00071917723E1F7329704C07C916D93708335
:101AB0006291AE17BF07C8F30895A1E21A2EAA1BC0
:101AC000BB1BFD010DC0AA1FBB1FEE1FFF1FA217EE
:101AD000B307E407F50720F0A21BB30BE40BF50BEB
:101AE000661F771F881F991F1A9469F76095709574
:101AF000809590959B01AC01BD01CF0108952F9277
:101B00003F924F925F926F927F928F929F92AF928D
:101B1000BF92CF92DF92EF92FF920F931F93CF93DA
:101B2000DF93CDB7DEB7CA1BDB0B0FB6F894DEBF71
:101B30000FBECDBF09942A88398848885F846E8497
:101B40007D848C849B84AA84B984C884DF80EE80E1
:101B5000FD800C811B81AA81B981CE0FD11D0FB6EA
:101B6000F894DEBF0FBECDBFED010895EE0FFF1F4D
:101B70000590F491E02D09940F931F93CF93DF9379
:101B80008230910510F482E090E0E0918A02F091B9
:101B90008B0220E030E0A0E0B0E0309719F1408106
:101BA00051810281138148175907C8F0841795079E
:101BB00069F4109731F012960C93129713961C93B8
:101BC00027C000938A0210938B0222C02115310591
:101BD00019F04217530718F49A01BD01EF01DF0114
:101BE000F801DBCF21153105F9F0281B390B243022
:101BF000310580F48A819B816115710521F0FB011B
:101C00009383828304C090938B0280938A02FE01A7
:101C1000329644C0FE01E20FF31F8193919322504C
:101C20003109398328833AC0209188023091890292
:101C3000232B41F420910301309104013093890258
:101C40002093880220910101309102012115310574
:101C500041F42DB73EB74091050150910601241B78
:101C6000350BE0918802F0918902E217F307A0F4A6
:101C70002E1B3F0B2817390778F0AC014E5F5F4FE2
:101C80002417350748F04E0F5F1F50938902409389
:101C900088028193919302C0E0E0F0E0CF01DF91F0
:101CA000CF911F910F910895CF93DF93009709F47F
:101CB00081C0FC01329713821282A0918A02B091F6
:101CC0008B02109781F420813181820F931F209124
:101CD0008802309189022817390751F5F09389025B
:101CE000E093880267C0ED0120E030E0CE17DF0707
:101CF00040F44A815B819E0141155105F1F0EA01F2
:101D0000F5CFD383C28340815181840F951FC817BB
:101D1000D90759F488819981840F951F0296918380
:101D200080838A819B81938382832115310529F4E5
:101D3000F0938B02E0938A023DC0E901FB83EA83C2
:101D400049915991C40FD51FEC17FD0761F48081AB
:101D50009181840F951F0296E9019983888382817E
:101D600093819B838A83E0E0F0E012968D919C91B1
:101D70001397009719F0FD01DC01F7CF8D919C912D
:101D800011979D012E5F3F4F820F931F2091880274
:101D9000309189022817390769F4309729F4109295
:101DA0008B0210928A0202C013821282B0938902BF
:101DB000A0938802DF91CF910895A0E0B0E0E3EE18
:101DC000FEE00C94830DEC01009721F4CB010E94FE
:101DD000BC0DB4C0FC01E60FF71F9C012250310975
:101DE000E217F30708F4A8C0D9010D911C911197CF
:101DF00006171707B0F00530110508F49BC0C8019D
:101E000004978617970708F495C002501109061B1E
:101E1000170B019311936D937C93CF010E94540E85
:101E200089C05B01A01AB10A4C01800E911EA091DD
:101E30008A02B0918B02612C712CE12CF12C10974D
:101E400009F446C08D919C911197A815B905B1F57B
:101E50006C0142E0C40ED11CCA14DB0478F14C01C1
:101E60008A189B08640142E0C40ED11C1296BC90F3
:101E700012971396AC91B5E0CB16D10440F0B28224
:101E8000A38391828082D9016D937C9309C00E5FF8
:101E90001F4F800F911FF90191838083EB2DFA2F43
:101EA000E114F10431F0D7011396FC93EE931297ED
:101EB00041C0F0938B02E0938A023CC06816790619
:101EC00008F43C017D0112960D90BC91A02DB7CF76
:101ED000809188029091890288169906E1F466162D
:101EE0007706C8F48091010190910201009741F4B6
:101EF0008DB79EB74091050150910601841B950B4B
:101F0000E817F907C8F4F0938902E0938802F90111
:101F1000718360830FC0CB010E94BC0D7C010097D0
:101F200059F0A801BE010E94B00FCE010E94540ECC
:101F3000C70104C0CE0102C080E090E0CDB7DEB79B
:101F4000EEE00C949F0D81E090E0F8940C94C90FA2
:101F50009111089581568A5108F480528558089548
:101F6000FB01DC0102C001900D9241505040D8F7B6
:101F70000895FB01DC018D91019080190110D9F3C6
:101F8000990B0895FB01DC0101900D920020E1F70F
:061F90000895F894FFCF54
:101F9600FF00008C0280000000000026010606F902
:101FA600007301FB010801ED01000000007A04C680
:101FB600033602203000564D4450565F317C315F67
:101FC600564D4450560D0A00554944207461672009
:101FD6003A004D657373616765203A2000413620EB
:101FE600353320394620463700417574686F72696B
:101FF6007A6564206163636573730020416363657A
:0A20060073732064656E6965640061
:00000001FF
